:03000000020006F5
:03005F0002000399
:03000300020B5B92
:20006200AFF0AE83E582900002F0EEA3F0EFA3F0C2E8900002E0FDA3E0FEA3E0FF90000016
:20008200E0FBA3E0FC900018EDF0EEA3F0EFA3F090001BEBF0ECA3F090001D7401F075826E
:2000A20061120297AF82D2E8900004C0071207E9D0078F8222E582900006F012015B9000F5
:2000C20007E4F09000087407F07400A3F0E4A3F090000B7401F0E4A3F075820112011E9092
:2000E20000077408F09000087405F07400A3F0E4A3F090000B7401F0E4A3F075821112017A
:200102001E900006E0FF60069000077409F0900007E0900026F0758201020386E582900049
:200122000DF0FF741F5F4420FF900008E0FCA3E0FDA3E0FE90000BE0FAA3E0FB900018EC70
:20014200F0EDA3F0EEA3F090001BEAF0EBA3F090001DE4F08F8202029775E80275E804229A
:20016200AFF0AE83E582900011F0EEA3F0EFA3F0900011E0FDA3E0FEA3E0FF90000EE0FBB8
:20018200A3E0FC900018EDF0EEA3F0EFA3F090001BEBF0ECA3F090001DE4F07582A0120225
:2001A20097AF82900010E0FEBE0107C0071201B7D0078F8222D2E89000041207E990000AAC
:2001C2001207E9C2E822E582900014F09000287415F07400A3F0E4A3F090002B7401F0E4A1
:2001E200A3F07582001203D2900015E0FF30E0012290001574014FF09000087415F07400F7
:20020200A3F0E4A3F090000B7401F0E4A3F075820012011E900014E0FF6008D2E8900004FA
:200222000207E9C2E8229000167470F09000087416F07400A3F0E4A3F090000B7401F0E410
:20024200A3F075820712011EC2C1229000287417F07400A3F0E4A3F090002B7401F0E4A3DD
:20026200F07582001203D2900017E0FF20E00122C2E890001774FE5FF09000087417F0746C
:2002820000A3F0E4A3F090000B7401F0E4A3F075820002011EE58290001EF0FF90001FF020
:2002A200C2E99000207401F0E4A3F09000227401F090001F75F0001202F3900018E0FDA3AB
:2002C200E0FEA3E0FF90001BE0FBA3E0FC90001DE0FA900020EBF0ECA3F0900022EAF08D0D
:2002E200828E838FF01202F3D2E990001FE0F58222AFF0AE83E582900023F0EEA3F0EFA313
:20030200F0900023E0FDA3E0FEA3E0FF900022E0FC900020E0FAA3E0FB78007900C3E89A8C
:20032200E99B505FC002C003E82DF508E93EF5098F0A850882850983850AF0121633FBF549
:2003420082C007C006C005C004C003C002C001C00012040D85820BD000D001D002D003D0B2
:2003620004D005D006D007D003D002EC600E850882850983850AF0E50B120DB108B8009D3A
:2003820009809A22E582900027F0900026E04402F09000087426F07400A3F0E4A3F090000C
:2003A2000B7401F0E4A3F075820012011E9000011207E9900026E0FF20E003C2E8229000A5
:2003C20027E0FF6008D2E89000040207E9C2E822E58290002DF0FF53071F900028E0FCA3DE
:2003E200E0FDA3E0FE90002BE0FAA3E0FB900018ECF0EDA3F0EEA3F090001BEAF0EBA3F002
:2004020090001D7401F08F82020297E58290002EF0F5E7E5E630E2FBC2C085E78222AFF022
:20042200AE83E582900032F0EEA3F0EFA3F0900031E0FF24FA500122740A2FFF900032E0EE
:20044200FCA3E0FDA3E0FE90002FE0FAA3E0FB900008ECF0EDA3F0EEA3F090000BEAF0EBB1
:20046200A3F08F8202011EE582900036F0FF24F850030204ED900035E0FEFDED30E04CEE60
:2004820030E11574075FF5F005F07401800225E0D5F0FBFD4280801474075FF5F005F07449
:2004A20001800225E0D5F0FBF4FD528074075FFD74075DFC74E05E4CF59E8DF005F074010C
:2004C200800225E0D5F0FBF452932274075FFD74075D4410FC74E05E4CF59E8DF005F07462
:2004E20001800225E0D5F0FB429322EF24F0500302056B900035E0FEFDED30E04CEE30E10B
:200502001574075FF5F005F07401800225E0D5F0FBFD4290801474075FF5F005F074018048
:200522000225E0D5F0FBF4FD529074075FFD74075DFC74E05E4CF59F8DF005F07401800279
:2005420025E0D5F0FBF452942274075FFD74075D4410FC74E05E4CF59F8DF005F0740180E0
:200562000225E0D5F0FB429422EF24E850030205E9900035E0FEFDED30E04CEE30E115740B
:20058200075FF5F005F07401800225E0D5F0FBFD42A0801474075FF5F005F074018002251A
:2005A200E0D5F0FBF4FD52A074075FFD74075DFC74E05E4CF5978DF005F07401800225E013
:2005C200D5F0FBF452952274075FFD74075D4410FC74E05E4CF5978DF005F0740180022545
:2005E200E0D5F0FB429522EF24E14075900035E0FEFDED30E04CEE30E11574075FF5F005F6
:20060200F07401800225E0D5F0FBFD42B0801474075FF5F005F07401800225E0D5F0FBF445
:20062200FD52B074075FFD74075DFC74E05E4CF58F8DF005F07401800225E0D5F0FBF45218
:20064200962253070774075F4410FD74E05E4DF58F8FF005F07401800225E0D5F0FBFF4260
:200662009622E582900037F0900038E4F0900037E0FF24F8401974075FF5F005F074018042
:200682000225E0D5F0FBFE9000385580F08058EF24F0401974075FF5F005F0740180022502
:2006A200E0D5F0FBFE9000385590F0803AEF24E8401974075FF5F005F07401800225E0D56A
:2006C200F0FBFE90003855A0F0801CEF24E1401774075FF5F005F07401800225E0D5F0FB2B
:2006E200FF90003855B0F0900038E0FF60047582012275820022E582900039F0FF24F84083
:200702001474075FF5F005F07401800225E0D5F0FBF4528022EF24F0401474075FF5F00550
:20072200F07401800225E0D5F0FBF4529022EF24E8401474075FF5F005F07401800225E014
:20074200D5F0FBF452A022EF24E1401474075FF5F005F07401800225E0D5F0FBF4FF52B022
:2007620022E58290003AF0FF24F8401374075FF5F005F07401800225E0D5F0FB428022EF83
:2007820024F0401374075FF5F005F07401800225E0D5F0FB429022EF24E8401374075FF56F
:2007A200F005F07401800225E0D5F0FB42A022EF24E1401374075FF5F005F074018002257B
:2007C200E0D5F0FBFF42B022E58290003CF090003BE0FF600990003CE0F58202076390000F
:2007E2003CE0F5820206F8AF83E58290003DF0EFA3F090003DE0FEA3E0FF4E7001221EBEA2
:20080200FF011F90003DEEF0EFA3F090003DE0FEA3E0FF7C007D00C3EC9EED9F5009000032
:200822000CBC00F30D80F022AF83E58290003FF0EFA3F090003FE0FEA3E0FF7C007D00C397
:20084200EC9EED9F501D9003E8C007C006C005C004120866D004D005D006D0070CBC00DF05
:200862000D80DC22AF83E582900041F0EFA3F0900041E0FEA3E0FF7C007D00C3EC9EED9F0C
:20088200501D9003E8C007C006C005C0041207E9D004D005D006D0070CBC00DF0D80DC22CE
:2008A200E582900043F0AFB2530703900043E054FC4FF5B222E582900045F0FF700A9000FE
:2008C20044E0F5A143B20122900044E0F5A243B20222E582900046F0AFAD5307F89000462F
:2008E200E054074FF5AD22740755A3FF900047E4F07424A3F074F4A3F0E4A3F07E00C3EEBF
:200902009F5029900047E0FAA3E0FBA3E0FCA3E0C313FDEC13FCEB13FBEA13FA900047F007
:20092200EBA3F0ECA3F0EDA3F00E80D2900047E0FCA3E0FDA3E0FEA3E08C828D838EF022E3
:20094200AF83E58290004BF0EFA3F090004BE0FEA3E0FF8EAF8FAF22AF82AE83ADF0FC904C
:20096200004DEFF0EEA3F0EDA3F0ECA3F0900051E4F0E4A3F0740755ADFFBF070B75820257
:200982001208D4E5AD30E6FB90004DE0FCA3E0FDA3E0FEA3E0FFC3EC94F8ED94CFEE940774
:2009A200EF94005052EF5401A2E0CE13CE13CEFFEDC3134EFEED5401A2E0CC13CC13CCFD61
:2009C20074F42CFC74013DFDE43EFEE43FFF90006374E8F07403A3F0E4A3F0E4A3F08C824F
:2009E2008D838EF0EF120CA3AC82AD83AEF0FF900051ECF0EDA3F0900051E0FEA3E0FF8EB0
:200A0200828F83C007C006120942D006D0078E828F8322E582900054F0900053E0FF30E751
:200A220041900054E0FEBE080BADA674C75D4408F5A68020BE100BADA674C75D4410F5A6BB
:200A42008012BE200BAEA674C75E4420F5A6800475820022AE885306FE530701EF4EF588EE
:200A6200801F900054E0FFBF08028008BF10028003BF2009AFA674C75FF5A6800475820080
:200A82002275820122AF83E582900055F0EFA3F0900055E0FEA3E0FD74035DF5D38ED27475
:200AA200E05DF5D122E582900057F0FF900057740F5FF0AFD35307C3900057E025E025E0A9
:200AC2004FF5D322E582900058F0F582120AA743D3800000000022E582900059F0F58212E1
:200AE2000AC6744055D3FFBF400280F685D58285D48322E58290005CF0FF74035FFEBE0222
:200B02000E90005AE0FDA3E0FE8D8C8D8A800A90005AE0F58AA3E0F58CAE895306F053079C
:200B22000FEF4EF58922E58290005FF0FF74305FFEBE200E90005DE0FDA3E0FE8D8D8D8B18
:200B4200800A90005DE0F58BA3E0F58DAE8953060F5307F0EF4EF58922120C41120C94E5FB
:200B620082900060F090000E7401F0E4A3F09000107401F090006075F00012016230C1FDDA
:200B8200900018E4F0E4A3F0E4A3F090001BE4F0E4A3F090001D7401F07582FF120297E55B
:200BA2008230E5D91202287582011201C87E007F0030C140900018E4F0E4A3F0E4A3F0908C
:200BC200001BE4F0E4A3F090001D7401F07582FFC007C006120297E582D006D00730E6142F
:200BE2009000007401F0E4A3F090006075F000120062801ABEA709BF6106900060743FF0FD
:200C02000EBE00010FC3EE94A8EF946140A3120228900060E0FF7E00C007C0067453C0E0C5
:200C22007416C0E07480C0E0120E18E58124FBF58112024D9000821207E9B280020B5E901F
:200C420000357401F0758200120469900035E4F07582061204699000357403F07582051233
:200C6200046990000074F3F07403A3F07582561200009000057401F07582001200B790006B
:200C8200820207E9E582900061F0F59910990280FB2210980280FB900062E599F0E0F582E4
:010CA200222F
:031653002563000C
:200CA300AF82AE83ADF0FC900067EFF0EEA3F0EDA3F0ECA3F090006BE4F0E4A3F0E4A3F023
:200CC300E4A3F0900063E0FCA3E0FDA3E0FEA3E0FF751320900067E0F8A3E0F9A3E0FAA335
:200CE300E0FB339200E828F8E933F9EA33FAEB33FB900067E8F0E9A3F0EAA3F0EBA3F0902E
:200D0300006BE0F8A3E0F9A3E0FAA3E0FBE828F8E933F9EA33FAEB33FB90006BE8F0E9A36A
:200D2300F0EAA3F0EBA3F030001E90006BE0F8A3E0F9A3E0FAA3E0FB90006B740148F0E99C
:200D4300A3F0EAA3F0EBA3F090006BE0F8A3E0F9A3E0FAA3E0FBC3E89CE99DEA9EEB9F4099
:200D63003190006BE8C39CF0E99DA3F0EA9EA3F0EB9FA3F0900067E0F8A3E0F9A3E0FAA351
:200D8300E0FB900067740148F0E9A3F0EAA3F0EBA3F0D513028003020CD7900067E0FCA392
:0E0DA300E0FDA3E0FEA3E08C828D838EF022A3
:06003500E478FFF6D8FD9F
:200013007900E94400601B7A00901661789A75C900E493F2A308B8000205C9D9F4DAF27531
:02003300C9FF03
:1B0DB10020F71130F6138883A88220F509F6A8837583002280FEF280F5F02241
:20003B007800E84400600A790075C900E4F309D8FC789AE84400600C7901900000E4F0A301
:04005B00D8FCD9FAFA
:200DCC00C012858112120C86D01222AFF0AE83E582900071F0EEA3F0EFA3F0900071E0FD6C
:200DEC00A3E0FEA3E0FF900070E0FC900084E4F0E4A3F0E4A3F0900087EDF0EEA3F0EFA32B
:200E0C00F090008AECF0900DCC020F1AC012858112E51224FBFF900084E4F0E4A3F0E4A367
:200E2C00F0E51224FBF8900087E6F008E6A3F008E6A3F090008AEFF0900DCC120F1AD0123A
:010E4C002283
:200E4D00E582900080F0FF900076E0C0E0A3E0C0E0A3E0C0E0120E67800D900074E0C0E0BB
:200E6D00A3E0C0E08F822215811581158190007EE02401F0A3E03400F022E582900081F019
:200E8D002430FF24C6500A74072FFF3001034307208F82020E4DE582900082F0FFC4540F6A
:200EAD00F582C007120E87D00753070F8F82020E87E582900083F0900079E0FCA3E0FDA3E6
:200ECD00E0FEA3E0FF90007DE0FB900083E0FA751320EB2BFBEF235401F88B0149FBEC2CD0
:200EED00FCED33FDEE33FEEF33FFC3EB9A4007EBC39AFB430401D513D9900079ECF0EDA33C
:200F0D00F0EEA3F0EFA3F090007DEBF022AF83E58290008BF0EFA3F090008BE0FEA3E0FF26
:200F2D00900074EEF0EFA3F0900084E0FDA3E0FEA3E0FF900076EDF0EEA3F0EFA3F09000D6
:200F4D007EE4F0E4A3F0900087E0FDA3E0FEA3E0FF8D828E838FF0121633FC900087740142
:200F6D002DF0E43EA3F0EFA3F0EC700302160FBC25028003021607C202C203C204C205C22D
:200F8D0006C207C208C20990008DE4F090008EF090008F74FFF0900087E0FDA3E0FEA3E067
:200FAD00FF8D828E838FF0121633FBA3AD82AE83900087EDF0EEA3F0EFA3F0900091EBF03A
:200FCD00BB25088B82120E4D020F538B02BA3000403CEA24C6403790008FE0FABAFF21C06D
:200FED0005C006C00790008EE075F00AA42B24D090008EF0D007D006D00570A5D20380A187
:20100D00EA75F00AA42B24D090008FF08093900091E0FBBB2E1590008FE0FABAFF02800354
:20102D00020FAE90008FE4F0020FAE8B02BA61004010EA2485400B90009174DF5BF0D201CA
:20104D008002C201900091E0FBBB2002806DBB2B028063BB2D028059BB42028063BB430208
:20106D008068BB44030212ADBB46030212CFBB4803020FAEBB49030212ADBB4A03020FAE7D
:20108D00BB4C028040BB4F030212B7BB5003021219BB53028070BB5403020FAEBB55030281
:2010AD0012BFBB58030212C7BB5A03020FAE0212D3D202020FAED204020FAED205020FAEE5
:2010CD00D207020FAED208020FAE30071490008AE0FF1F90008AEFF08F01900091E7F0806E
:2010ED001990008AE0FF1F1F90008AEFF08F01870609870719900091EEF0900091E0F58256
:20110D00120E4D0212DF90008AE0FF1F1F1F90008AEFF08F01870509870609870719199008
:20112D000079EDF0EEA3F0EFA3F08D828E838FF012161BAE8290008FE0FFBFFF0590008F57
:20114D00EEF020023190008EE0FFC3EE9F502790008EEFC39EF090008EE0FF8F051FED6032
:20116D0010758220C007C006120E4DD006D00780EA90008EEFF090008FE0FFC00690007960
:20118D00E0FAA3E0FDA3E0FE8A828D838EF0121633F50CD006E50C603F8F051FC3E46480CD
:2011AD008DF063F08095F0502FC006850C82C007C006120E4DD006D007900079E0FAA3E0E8
:2011CD00FDA3E0FE0ABA00010D900079EAF0EDA3F0EEA3F0D00680A32002030212DF90002D
:2011ED008EE0FFC3EE9F40030212DF90008EEFC39EF090008EE0FF8F061FEE70030212DA91
:20120D00758220C007120E4DD00780EB90008AE0FE1E1E1E90008AEEF08E0187020987053D
:20122D000987061919900079EAF0EDA3F0EEA3F090007BE0FEBE800040089000917443F0BE
:20124D008020BE600040089000917450F08013BE400040089000917449F0800690009174E4
:20126D0058F0900091E0FEF582C006120E4D75823A120E4D758230120E4D758278120E4D62
:20128D00D006BE4902800EBE5002800990007AE0F582120EA3900079E0F582120EA3803242
:2012AD00D20690008D740AF0802890008D7408F0802090008D740AF0801890008D7410F039
:2012CD008010D209800C8B82120E4D800590008EEFF030097790008AE0FF1F1F1F1F900059
:2012ED008AEFF08F018703098705098706098707191919900079EBF0EDA3F0EEA3F0EFA3DA
:20130D00F09000797456F07416A3F07480A3F0900079E0F50DA3E0F50EA3E0F50F740125D7
:20132D000DFAE4350EFBAF0F900079EAF0EBA3F0EFA3F0850D82850E83850FF0121633FFCE
:20134D007003020F538F82120E4D80C390008DE0F50D7003020F5330074A90008AE0FE1E7B
:20136D0090008AEEF08E01E7FE3395E0FDFBFA900079EEF0EDA3F0EBA3F0EAA3F0300603BF
:20138D0002142B900079E0FAA3E0A3E0A3E07B007D007E00900079EAF0EBA3F0EDA3F0EE4E
:2013AD00A3F0807A30082E90008AE0FE1E1E1E1E90008AEEF08E018702098703098705097C
:2013CD008706191919900079EAF0EBA3F0EDA3F0EEA3F0804990008AE0FE1E1E90008AEEC1
:2013ED00F08E01870509870619EE3395E0FBFA900079EDF0EEA3F0EBA3F0EAA3F020061EF5
:20140D00900079E0FAA3E0FBA3E0A3E07D007E00900079EAF0EBA3F0EDA3F0EEA3F03006C5
:20142D0030900079E0FAA3E0FBA3E0FDA3E0FE30E71DC3E49AFAE49BFBE49DFDE49EFE9096
:20144D000079EAF0EBA3F0EDA3F0EEA3F08002C206D20A751097751100750C0090007DE473
:20146D00F0850D82120EBE200A2390007DE0C4FA851082851183E0FF420285108285118302
:20148D00EAF0151074FFB510021511800C90007DE0FA851082851183F0050CB20A90007977
:2014AD00E0FAA3E0FBA3E0FEA3E0FFEA4B4E4F70AB900098E510F0E511A3F0900090E50C30
:2014CD00F090008EE0FF700690008E7401F0200327200224E50C04FF90008EE0FEC3EF9E49
:2014ED005011758220C007C006120E4DD006D0071E80EA90008EEEF030061175822D120EB1
:20150D004D90008EE01490008EF0802D900090E0FF602630041175822B120E4D90008EE04D
:20152D001490008EF0801230050F758220120E4D90008EE01490008EF020022A900090E0B6
:20154D00FF90008EE0FE8E051EC3EF9D50363003047D3080027D208D82C007C006120E4DF1
:20156D00D006D00780E090008EE0FF900090E0FDC39F500990008EEFC39DF0800C90008E95
:20158D00E4F0800590008EEEF0900098E0FEA3E0FF900090E0FD8D031DEB603EB20A200A48
:2015AD00140EBE00010F8E828F83E0C4540FFB90007DF0800E8E828F83E0FB53030F90008D
:2015CD007DEBF090007DE0F582C007C006C005120E87D005D006D00780BC200203020F5302
:2015ED0090008EE0FF8F061FEE7003020F53758220C007120E4DD00780EB8C82120E4D025E
:0E160D000F5390007EE0FEA3E08E82F5832254
:0B1656003C4E4F20464C4F41543E00DC
:18161B00AA82AB831216336003A380F8C3E5829AF582E5839BF58322AC
:0D00060075812112164FE582600302000390
:1C16330020F71430F6148883A88220F507E6A88375830022E280F7E49322E022C6
:04164F00758200227E
:00000001FF
