:060000000200210214BD04
:01000B0032C2
:0100130032BA
:03001B000215517A
:03007A0002001E63
:03001E000215AD1B
:20007D00AFF0AE83E582900002F0EEA3F0EFA3F0C2E8900002E0FDA3E0FEA3E0FF900000FB
:20009D00E0FBA3E0FC900018EDF0EEA3F0EFA3F090001BEBF0ECA3F090001D7401F0758253
:2000BD00611202B2AF82D2E8900004C0071208BFD0078F8222E582900006F01201769000CD
:2000DD0007E4F09000087407F07400A3F0E4A3F090000B7401F0E4A3F0758201120139905C
:2000FD0000077408F09000087405F07400A3F0E4A3F090000B7401F0E4A3F075821112015F
:20011D0039900006E0FF60069000077409F0900007E0900026F07582010203A1E5829000F8
:20013D000DF0FF741F5F4420FF900008E0FCA3E0FDA3E0FE90000BE0FAA3E0FB900018EC55
:20015D00F0EDA3F0EEA3F090001BEAF0EBA3F090001DE4F08F820202B275E80275E8042264
:20017D00AFF0AE83E582900011F0EEA3F0EFA3F0900011E0FDA3E0FEA3E0FF90000EE0FB9D
:20019D00A3E0FC900018EDF0EEA3F0EFA3F090001BEBF0ECA3F090001DE4F07582A012020A
:2001BD00B2AF82900010E0FEBE0107C0071201D2D0078F8222D2E89000041208BF90000A84
:2001DD001208BFC2E822E582900014F09000287415F07400A3F0E4A3F090002B7401F0E4AF
:2001FD00A3F07582001203ED900015E0FF30E0012290001574014FF09000087415F07400C1
:20021D00A3F0E4A3F090000B7401F0E4A3F0758200120139900014E0FF6008D2E8900004C4
:20023D000208BFC2E8229000167470F09000087416F07400A3F0E4A3F090000B7401F0E41E
:20025D00A3F0758207120139C2C1229000287417F07400A3F0E4A3F090002B7401F0E4A3A7
:20027D00F07582001203ED900017E0FF20E00122C2E890001774FE5FF09000087417F07436
:20029D0000A3F0E4A3F090000B7401F0E4A3F0758200020139E58290001EF0FF90001FF0EA
:2002BD00C2E99000207401F0E4A3F09000227401F090001F75F00012030E900018E0FDA374
:2002DD00E0FEA3E0FF90001BE0FBA3E0FC90001DE0FA900020EBF0ECA3F0900022EAF08DF2
:2002FD00828E838FF012030ED2E990001FE0F58222AFF0AE83E582900023F0EEA3F0EFA3DC
:20031D00F0900023E0FDA3E0FEA3E0FF900022E0FC900020E0FAA3E0FB78007900C3E89A71
:20033D00E99B505FC002C003E82DF508E93EF5098F0A850882850983850AF012191BFBF543
:20035D0082C007C006C005C004C003C002C001C00012042885820BD000D001D002D003D07C
:20037D0004D005D006D007D003D002EC600E850882850983850AF0E50B12187408B8009D51
:20039D0009809A22E582900027F0900026E04402F09000087426F07400A3F0E4A3F09000F1
:2003BD000B7401F0E4A3F07582001201399000011208BF900026E0FF20E003C2E822900098
:2003DD0027E0FF6008D2E89000040208BFC2E822E58290002DF0FF53071F900028E0FCA3EC
:2003FD00E0FDA3E0FE90002BE0FAA3E0FB900018ECF0EDA3F0EEA3F090001BEAF0EBA3F0E7
:20041D0090001D7401F08F820202B2E58290002EF0F5E7E5E630E2FBC2C085E78222AFF0EC
:20043D00AE83E582900032F0EEA3F0EFA3F0900031E0FF24FA500122740A2FFF900032E0D3
:20045D00FCA3E0FDA3E0FE90002FE0FAA3E0FB900008ECF0EDA3F0EEA3F090000BEAF0EB96
:20047D00A3F08F82020139C2E89000287435F07400A3F0E4A3F090002B7401F0E4A3F075FA
:20049D0082001203ED900035E0FF20E1012290003574FD5FF09000087435F07400A3F0E452
:2004BD00A3F090000B7401F0E4A3F0758200020139E582900036F09000287437F07400A35B
:2004DD00F0E4A3F090002B7401F0E4A3F07582001203ED900037E0FF30E1012290003774F3
:2004FD00024FF09000087437F07400A3F0E4A3F090000B7401F0E4A3F075820012013990A3
:20051D0000011208BF900037E0FF20E003C2E822900036E0FF6008D2E89000040208BFC289
:20053D00E822E582900039F0FF24F850030205C3900038E0FEFDED30E04CEE30E1157407C1
:20055D005FF5F005F07401800225E0D5F0FBFD4280801474075FF5F005F07401800225E086
:20057D00D5F0FBF4FD528074075FFD74075DFC74E05E4CF59E8DF005F07401800225E0D55C
:20059D00F0FBF452932274075FFD74075D4410FC74E05E4CF59E8DF005F07401800225E05A
:2005BD00D5F0FB429322EF24F05003020641900038E0FEFDED30E04CEE30E11574075FF5F9
:2005DD00F005F07401800225E0D5F0FBFD4290801474075FF5F005F07401800225E0D5F085
:2005FD00FBF4FD529074075FFD74075DFC74E05E4CF59F8DF005F07401800225E0D5F0FBA5
:20061D00F452942274075FFD74075D4410FC74E05E4CF59F8DF005F07401800225E0D5F0FD
:20063D00FB429422EF24E850030206BF900038E0FEFDED30E04CEE30E11574075FF5F005D1
:20065D00F07401800225E0D5F0FBFD42A0801474075FF5F005F07401800225E0D5F0FBF4FA
:20067D00FD52A074075FFD74075DFC74E05E4CF5978DF005F07401800225E0D5F0FBF452C5
:20069D00952274075FFD74075D4410FC74E05E4CF5978DF005F07401800225E0D5F0FB428D
:2006BD009522EF24E14075900038E0FEFDED30E04CEE30E11574075FF5F005F07401800212
:2006DD0025E0D5F0FBFD42B0801474075FF5F005F07401800225E0D5F0FBF4FD52B07407D7
:2006FD005FFD74075DFC74E05E4CF58F8DF005F07401800225E0D5F0FBF45296225307079E
:20071D0074075F4410FD74E05E4DF58F8FF005F07401800225E0D5F0FBFF429622E58290EE
:20073D00003AF090003BE4F090003AE0FF24F8401974075FF5F005F07401800225E0D5F040
:20075D00FBFE90003B5580F08058EF24F0401974075FF5F005F07401800225E0D5F0FBFE51
:20077D0090003B5590F0803AEF24E8401974075FF5F005F07401800225E0D5F0FBFE9000B0
:20079D003B55A0F0801CEF24E1401774075FF5F005F07401800225E0D5F0FBFF90003B55A6
:2007BD00B0F090003BE0FF60047582012275820022E58290003CF0FF24F8401474075FF5DA
:2007DD00F005F07401800225E0D5F0FBF4528022EF24F0401474075FF5F005F07401800271
:2007FD0025E0D5F0FBF4529022EF24E8401474075FF5F005F07401800225E0D5F0FBF4521A
:20081D00A022EF24E1401474075FF5F005F07401800225E0D5F0FBF4FF52B022E582900033
:20083D003DF0FF24F8401374075FF5F005F07401800225E0D5F0FB428022EF24F0401374E2
:20085D00075FF5F005F07401800225E0D5F0FB429022EF24E8401374075FF5F005F0740114
:20087D00800225E0D5F0FB42A022EF24E1401374075FF5F005F07401800225E0D5F0FBFF5A
:20089D0042B022E58290003FF090003EE0FF600990003FE0F58202083990003FE0F582025A
:2008BD0007CEAF83E582900040F0EFA3F0900040E0FEA3E0FF4E7001221EBEFF011F9000CF
:2008DD0040EEF0EFA3F0900040E0FEA3E0FF7C007D00C3EC9EED9F500900000CBC00F30D38
:2008FD0080F022AF83E582900042F0EFA3F0900042E0FEA3E0FF7C007D00C3EC9EED9F5018
:20091D001D9003E8C007C006C005C00412093CD004D005D006D0070CBC00DF0D80DC22AF7E
:20093D0083E582900044F0EFA3F0900044E0FEA3E0FF7C007D00C3EC9EED9F501D9003E87C
:20095D00C007C006C005C0041208BFD004D005D006D0070CBC00DF0D80DC22E582900046C6
:20097D00F0AFB2530703900046E054FC4FF5B222E582900048F0FF700A900047E0F5A14356
:20099D00B20122900047E0F5A243B20222E582900049F0AFAD5307F8900049E054074FF5C8
:2009BD00AD22740755A3FF90004AE4F07424A3F074F4A3F0E4A3F07E00C3EE9F50299000B7
:2009DD004AE0FAA3E0FBA3E0FCA3E0C313FDEC13FCEB13FBEA13FA90004AF0EBA3F0ECA3C1
:2009FD00F0EDA3F00E80D290004AE0FCA3E0FDA3E0FEA3E08C828D838EF022AF83E58290E9
:200A1D00004EF0EFA3F090004EE0FEA3E0FF8EAF8FAF22AF82AE83ADF0FC900050EFF0EE76
:200A3D00A3F0EDA3F0ECA3F0900054E4F0E4A3F0740755ADFFBF070B7582021209AAE5AD3B
:200A5D0030E6FB900050E0FCA3E0FDA3E0FEA3E0FFC3EC94F8ED94CFEE9407EF94005052F0
:200A7D00EF5401A2E0CE13CE13CEFFEDC3134EFEED5401A2E0CC13CC13CCFD74F42CFC74A6
:200A9D00013DFDE43EFEE43FFF9000BC74E8F07403A3F0E4A3F0E4A3F08C828D838EF0EFA1
:200ABD00121766AC82AD83AEF0FF900054ECF0EDA3F0900054E0FEA3E0FF8E828F83C00722
:200ADD00C006120A18D006D0078E828F8322E582900057F0900056E0FF30E741900057E0EC
:200AFD00FEBE080BADA674C75D4408F5A68020BE100BADA674C75D4410F5A68012BE200B6A
:200B1D00AEA674C75E4420F5A6800475820022AE885306FE530701EF4EF588801F90005707
:200B3D00E0FFBF08028008BF10028003BF2009AFA674C75FF5A680047582002275820122EB
:200B5D00AF83E582900058F0EFA3F0900058E0FEA3E0FD74035DF5D38ED274E05DF5D122AA
:200B7D00E58290005AF0FF90005A740F5FF0AFD35307C390005AE025E025E04FF5D322E5CB
:200B9D008290005BF0F582120B7D43D3800000000022E58290005CF0F582120B9C74405596
:200BBD00D3FFBF400280F685D58285D48322E58290005FF0FF74035FFEBE020E90005DE041
:200BDD00FDA3E0FE8D8C8D8A800A90005DE0F58AA3E0F58CAE895306F053070FEF4EF589CC
:200BFD0022E582900062F0FF74305FFEBE200E900060E0FDA3E0FE8D8D8D8B800A90006087
:200C1D00E0F58BA3E0F58DAE8953060F5307F0EF4EF58922E582900065F0FF30E205438760
:200C3D00808007AE87747F5EF58774C05FFEBE4002800774C05FFEBEC03274025FFEBE02A2
:200C5D000E900063E0F5AAA3E0F5BAD2DF801DC2DF900063E0FDA3E0900060EDF0E4A3F03F
:200C7D00758220C007120BFED007D28E74F05FF59822AF83E582900067F0EFA3F0900066BD
:200C9D00E0FF60047F0280027F01EF75F002A4FFAEF0C007C0061209BFAA82AB83ACF0FD80
:200CBD00D006D0078F00EEF93395E0FEFF9000CBEAF0EBA3F0ECA3F0EDA3F0888289838EF9
:200CDD00F0EF1218AFAC82AD83AEF0FF900067E0FAA3E0FBE4C39AFA74049B5403A2E0CA04
:200CFD0013CA13A2E0CA13CA13CAFB9000BCEAF0EBA3F0E4A3F0E4A3F08C828D838EF0EFC9
:200D1D00121766AC82AD83AEF0FF0CBC00090DBD00050EBE00010FEFC313FFEE13FEED13ED
:200D3D00FDEC13F5828D838EF0EF22E58290006AF0900069E0FF60047F0280027F01EF7510
:200D5D00F002A4FFAEF0C007C0061209BFAA82AB83ACF0FDD006D0078F00EEF93395E0FE20
:200D7D00FF9000CBEAF0EBA3F0ECA3F0EDA3F0888289838EF0EF1218AFAC82AD83AEF0FF4E
:200D9D0090006AE0FB7A009000C9E4C39BF074019AA3F0900180C007C006C005C004121869
:200DBD008FAA82AB83D004D005D006D0079000BCEAF0EBA3F0EB3395E0A3F0A3F08C828DDF
:200DDD00838EF0EF121766AC82AD83AEF0FF0CBC00090DBD00050EBE00010FEFC313FFEE4E
:200DFD0013FEED13FDEC13F5828D838EF0EF22AF82AE83ADF0FC90006CEFF0EEA3F0EDA3CC
:200E1D00F0ECA3F090006BE0FF60047F0280027F01EF75F002A4FFAEF0C007C0061209BF87
:200E3D00AA82AB83ACF0FDD006D0078F00EEF93395E0FEFF9000CBEAF0EBA3F0ECA3F0EDBB
:200E5D00A3F0888289838EF0EF1218AFAC82AD83AEF0FF90006CE0F8A3E0F9A3E0FAA3E03B
:200E7D005403A2E0CA13CA13A2E0CA13CA13CAFBE90303543F4AFAE95403A2E0C813C81383
:200E9D00A2E0C813C813C8F99000BCE8F0E9A3F0EAA3F0EBA3F08C828D838EF0EF12176687
:200EBD00AC82AD83AEF0FF0CBC00090DBD00050EBE00010FEFC313FFEE13FEED13FDEC13DF
:200EDD00FCE4C39CFC74049DFDE49EE49F8C828D8322AF82AE83ADF0FC900071EFF0EEA3F7
:200EFD00F0EDA3F0ECA3F0900070E0FF60047F0280027F01EF75F002A4FFAEF0C007C006FC
:200F1D001209BFAA82AB83ACF0FDD006D0078F00EEF93395E0FEFF9000CBEAF0EBA3F0EC80
:200F3D00A3F0EDA3F0888289838EF0EF1218AFAC82AD83AEF0FF900071E0F8A3E0F9A3E052
:200F5D00FAA3E0FB9000CBE8F0E9A3F0EAA3F0EBA3F0900180E4F5F0C007C006C005C00462
:200F7D001218AFA882A983AAF0FBD004D005D006D0079000BCE8F0E9A3F0EAA3F0EBA3F09F
:200F9D008C828D838EF0EF121766AC82AD83AEF0FF0CBC00090DBD00050EBE00010FEFC3F1
:200FBD0013EE13ED13EC13FCC3E49CF58222E582900079F0FF74C05FFEBE4002800A74C07B
:200FDD005FFEBEC00280012274025FFEBE0202800302113F900075E0FBA3E0FCA3E0FDA388
:200FFD00E0FE90006BE4F08B828C838DF0EEC007C006C005C004C003120E0CA982AA83D073
:20101D0003D004D005D00690006B7401F08B828C838DF0EEC006C005C004C003C002C001B5
:20103D00120E0C85820C85830DD001D002900066E4F089828A83C002C001120C8F85820E75
:20105D0085830F85F010F5119000667401F0850C82850D83120C8F85821285831385F014E4
:20107D00F515D001D002D003D004D005D006D007C3EB950EEC950FED9510EE95115017E52A
:20109D000EC39BF516E50F9CF517E5109DF518E5119EF5198015EBC3950EF516EC950FF569
:2010BD0017ED9510F518EE9511F519C3EB9512EC9513ED9514EE95155017E512C39BF50EE5
:2010DD00E5139CF50FE5149DF510E5159EF5118015EBC39512F50EEC9513F50FED9514F512
:2010FD0010EE9515F511C3E516950EE517950FE5189510E519951150128F065306FB900003
:20111D0063E9F0EAA3F08E82020C318F0674FB5E4404FE900063E50CF0E50DA3F08E820297
:20113D000C31900075E0FBA3E0FCA3E0FDA3E0FE900070E4F08B828C838DF0EEC007C0060D
:20115D00C005C004C003120EEFAA82D003D004D005D0069000707401F08B828C838DF0EEAD
:20117D00C006C005C004C003C002120EEFA982D002900069E4F08A82C002C001120D48852A
:20119D00821685831785F018F519D0019000697401F08982C001120D4885821285831385C5
:2011BD00F014F515D001D002D003D004D005D006D007C3EB9516EC9517ED9518EE951950C1
:2011DD0017E516C39BF50EE5179CF50FE5189DF510E5199EF5118015EBC39516F50EEC9530
:2011FD0017F50FED9518F510EE9519F511C3EB9512EC9513ED9514EE95155017E512C39BA3
:20121D00F516E5139CF517E5149DF518E5159EF5198015EBC39512F516EC9513F517ED95A6
:20123D0014F518EE9515F519C3E50E9516E50F9517E5109518E511951950128F065306FB38
:20125D00900063EAF0E4A3F08E82020C3174FB5F4404FF900063E9F0E4A3F08F82020C3136
:20127D0012017690007A74FFF0900008747AF07400A3F0E4A3F090000B7401F0E4A3F0757B
:20129D008204020139E58290007BF0900008747BF07400A3F0E4A3F090000B7401F0E4A391
:2012BD00F0758205020139E58290007CF0900028747DF07400A3F0E4A3F090002B7401F04F
:2012DD00E4A3F07582061203ED90007DE054D7F090007CE0FFBF010A90007DE0FE4420F07F
:2012FD00800BBF030890007DE0FF4408F0900008747DF07400A3F0E4A3F090000B7401F05D
:20131D00E4A3F0758206020139E58290007EF0FFBF010890007F743FF0800590007FE4F0BA
:20133D00900008747FF07400A3F0E4A3F090000B7401F0E4A3F0758201020139E5829000F5
:20135D0080F09000287481F07400A3F0E4A3F090002B7401F0E4A3F07582001203ED9000C5
:20137D0081E054F3F0900080E0FFBF010A900081E0FE4408F0800BBF0208900081E0FF444C
:20139D000CF0900081E04402F09000087481F07400A3F0E4A3F090000B7401F0E4A3F07526
:2013BD0082000201399000287482F07400A3F0E4A3F090002B7401F0E4A3F075820612038D
:2013DD00ED900082E054F9F09000087482F07400A3F0E4A3F090000B7401F0E4A3F075826A
:2013FD000602013990008474F0F090008574F0F090008674F0F090008774F0F0900088745C
:20141D0002F09000087488F07400A3F0E4A3F090000B7401F0E4A3F075820212013990006F
:20143D008374D2F09000087483F07400A3F0E4A3F090000B7405F0E4A3F075820A12013911
:20145D009000087483F07400A3F0E4A3F090000B7405F0E4A3F0758210120139900083741D
:20147D00E1F09000087483F07400A3F0E4A3F090000B7405F0E4A3F075820B120139900028
:20149D00887420F09000087488F07400A3F0E4A3F090000B7401F0E4A3F075821202013965
:2014BD00C021C0E0C0F0C082C083C007C006C005C004C003C002C001C000C0D075D000C2A6
:2014DD008E90008AE0FEA3E0FF4E603F7464C39EFEE49FFF9000CBEEF0EFA3F0EF3395E0EF
:2014FD00A3F0A3F0903415E4F5F01218AFAC82AD83AEF0FF74FFC39CFC74FF9DFDE49EFED8
:20151D00E49FFF8C8B8D8DD28E80067582021207CE90009B7401F0D0D0D000D001D002D0C2
:20153D0003D004D005D006D007D083D082D0F0D0E0D02132C021C0E0C0F0C082C083C00780
:20155D00C006C005C004C003C002C001C000C0D075D00090009BE0FF60137582021208397B
:20157D00758B9B758DFF90009BE4F080067582021207CED0D0D000D001D002D003D004D0C3
:20159D0005D006D007D083D082D0F0D0E0D021329000387401F075820212053F75820212BD
:2015BD0008399001F412093C7582021207CE9001F412093C12127D1214017582641212A24C
:2015DD007582021212C47582001213267582021213597582031213C29000897401F0900065
:2015FD008A740AF0E4A3F0D2AF9000567481F0758208120AEBD2A8D2AB900060E4F0E4A3CB
:20161D00F0758210120BFED28E7E897F007D0090000E7420F0E4A3F09000107401F08E828A
:20163D008F838DF012017D30C1FD900018E4F0E4A3F0E4A3F090001BE4F0E4A3F090001D73
:20165D007401F07582FF1202B2E58230E5D91202437582011201E37E007F0020C1030217B8
:20167D000C900018E4F0E4A3F0E4A3F090001BE4F0E4A3F090001D7401F07582FFC007C052
:20169D00061202B2E582D006D00730E66290008FE0FAA3E0FBA3E0FCA3E0FDC374FE9A741C
:2016BD00FF9B74FF9C74FF8DF063F08095F0401D0ABA00090BBB00050CBC00010D90008F32
:2016DD00EAF0EBA3F0ECA3F0EDA3F0800E90008FE4F0E4A3F0E4A3F0E4A3F090000074208C
:2016FD00F0E4A3F090009C75F00012007D802CBEA718BF611590008DE0FCA3E0FD0CBC00A7
:20171D00010D90008DECF0EDA3F00EBE00010FC3EE94A8EF9461500302167812024312022A
:20173D006890009CE0FFBF011790009DE0FFBF0B0F90009FE0FF7E0090008AEFF0EEA3F057
:09175D0090012C12093C02162631
:20176600AF82AE83ADF0FC9000C0EFF0EEA3F0EDA3F0ECA3F09000C4E4F0E4A3F0E4A3F0A3
:20178600E4A3F09000BCE0FCA3E0FDA3E0FEA3E0FF751A209000C0E0F8A3E0F9A3E0FAA3AE
:2017A600E0FB339200E828F8E933F9EA33FAEB33FB9000C0E8F0E9A3F0EAA3F0EBA3F09007
:2017C60000C4E0F8A3E0F9A3E0FAA3E0FBE828F8E933F9EA33FAEB33FB9000C4E8F0E9A3EB
:2017E600F0EAA3F0EBA3F030001E9000C4E0F8A3E0F9A3E0FAA3E0FB9000C4740148F0E91D
:20180600A3F0EAA3F0EBA3F09000C4E0F8A3E0F9A3E0FAA3E0FBC3E89CE99DEA9EEB9F4072
:20182600319000C4E8C39CF0E99DA3F0EA9EA3F0EB9FA3F09000C0E0F8A3E0F9A3E0FAA3D1
:20184600E0FB9000C0740148F0E9A3F0EAA3F0EBA3F0D51A02800302179A9000C0E0FCA33D
:0E186600E0FDA3E0FEA3E08C828D838EF022D5
:06005000E478FFF6D8FD84
:20002E007900E94400601B7A0090193B78CF75C900E493F2A308B8000205C9D9F4DAF27504
:02004E00C9FFE8
:1B18740020F71130F6138883A88220F509F6A8837583002280FEF280F5F02273
:20188F00AA83AB828BF09000C9E0A4F8A9F08AF0E0A429F98BF0A3E0A429F5838882222245
:2018AF00A882A983AAF0FB88F09000CBE0A4FCADF089F0E0A42DFDE435F0FE88F0A3E0A471
:2018CF002DFDE5F03EFEE433FF89F0E0A42EFEE5F03FFF88F0A3E0A42EFEE5F03FFF8AF014
:2018EF009000CBE0A42EFEE5F03FFF8BF0E0A42FFF8AF0A3E0A42FFF89F0A3E0A42FFF8869
:0C190F00F0A3E0A42F8EF08D838C8222C8
:200056007800E84400600A790075C900E4F309D8FC78CFE84400600C7901900000E4F0A3B1
:04007600D8FCD9FADF
:0D002100758121121937E582600302001E6F
:1C191B0020F71430F6148883A88220F507E6A88375830022E280F7E49322E022DB
:041937007582002293
:00000001FF
