:060000000200090214F7E2
:0300620002000693
:030006000215459B
:20006500AFF0AE83E582900002F0EEA3F0EFA3F0C2E8900002E0FDA3E0FEA3E0FF90000013
:20008500E0FBA3E0FC900018EDF0EEA3F0EFA3F090001BEBF0ECA3F090001D7401F075826B
:2000A5006112029AAF82D2E8900004C0071208A7D0078F8222E582900006F012015E90002D
:2000C50007E4F09000087407F07400A3F0E4A3F090000B7401F0E4A3F0758201120121908C
:2000E50000077408F09000087405F07400A3F0E4A3F090000B7401F0E4A3F0758211120177
:2001050021900006E0FF60069000077409F0900007E0900026F0758201020389E582900040
:200125000DF0FF741F5F4420FF900008E0FCA3E0FDA3E0FE90000BE0FAA3E0FB900018EC6D
:20014500F0EDA3F0EEA3F090001BEAF0EBA3F090001DE4F08F8202029A75E80275E8042294
:20016500AFF0AE83E582900011F0EEA3F0EFA3F0900011E0FDA3E0FEA3E0FF90000EE0FBB5
:20018500A3E0FC900018EDF0EEA3F0EFA3F090001BEBF0ECA3F090001DE4F07582A0120222
:2001A5009AAF82900010E0FEBE0107C0071201BAD0078F8222D2E89000041208A790000AE4
:2001C5001208A7C2E822E582900014F09000287415F07400A3F0E4A3F090002B7401F0E4DF
:2001E500A3F07582001203D5900015E0FF30E0012290001574014FF09000087415F07400F1
:20020500A3F0E4A3F090000B7401F0E4A3F0758200120121900014E0FF6008D2E8900004F4
:200225000208A7C2E8229000167470F09000087416F07400A3F0E4A3F090000B7401F0E44E
:20024500A3F0758207120121C2C1229000287417F07400A3F0E4A3F090002B7401F0E4A3D7
:20026500F07582001203D5900017E0FF20E00122C2E890001774FE5FF09000087417F07466
:2002850000A3F0E4A3F090000B7401F0E4A3F0758200020121E58290001EF0FF90001FF01A
:2002A500C2E99000207401F0E4A3F09000227401F090001F75F0001202F6900018E0FDA3A5
:2002C500E0FEA3E0FF90001BE0FBA3E0FC90001DE0FA900020EBF0ECA3F0900022EAF08D0A
:2002E500828E838FF01202F6D2E990001FE0F58222AFF0AE83E582900023F0EEA3F0EFA30D
:20030500F0900023E0FDA3E0FEA3E0FF900022E0FC900020E0FAA3E0FB78007900C3E89A89
:20032500E99B505FC002C003E82DF508E93EF5098F0A850882850983850AF0121730FBF548
:2003450082C007C006C005C004C003C002C001C00012041085820BD000D001D002D003D0AC
:2003650004D005D006D007D003D002EC600E850882850983850AF0E50B12168908B8009D56
:2003850009809A22E582900027F0900026E04402F09000087426F07400A3F0E4A3F0900009
:2003A5000B7401F0E4A3F07582001201219000011208A7900026E0FF20E003C2E8229000E0
:2003C50027E0FF6008D2E89000040208A7C2E822E58290002DF0FF53071F900028E0FCA31C
:2003E500E0FDA3E0FE90002BE0FAA3E0FB900018ECF0EDA3F0EEA3F090001BEAF0EBA3F0FF
:2004050090001D7401F08F8202029AE58290002EF0F5E7E5E630E2FBC2C085E78222AFF01C
:20042500AE83E582900032F0EEA3F0EFA3F0900031E0FF24FA500122740A2FFF900032E0EB
:20044500FCA3E0FDA3E0FE90002FE0FAA3E0FB900008ECF0EDA3F0EEA3F090000BEAF0EBAE
:20046500A3F08F82020121C2E89000287435F07400A3F0E4A3F090002B7401F0E4A3F0752A
:2004850082001203D5900035E0FF20E1012290003574FD5FF09000087435F07400A3F0E482
:2004A500A3F090000B7401F0E4A3F0758200020121E582900036F09000287437F07400A38B
:2004C500F0E4A3F090002B7401F0E4A3F07582001203D5900037E0FF30E101229000377423
:2004E500024FF09000087437F07400A3F0E4A3F090000B7401F0E4A3F075820012012190D3
:2005050000011208A7900037E0FF20E003C2E822900036E0FF6008D2E89000040208A7C2D1
:20052500E822E582900039F0FF24F850030205AB900038E0FEFDED30E04CEE30E1157407F1
:200545005FF5F005F07401800225E0D5F0FBFD4280801474075FF5F005F07401800225E09E
:20056500D5F0FBF4FD528074075FFD74075DFC74E05E4CF59E8DF005F07401800225E0D574
:20058500F0FBF452932274075FFD74075D4410FC74E05E4CF59E8DF005F07401800225E072
:2005A500D5F0FB429322EF24F05003020629900038E0FEFDED30E04CEE30E11574075FF529
:2005C500F005F07401800225E0D5F0FBFD4290801474075FF5F005F07401800225E0D5F09D
:2005E500FBF4FD529074075FFD74075DFC74E05E4CF59F8DF005F07401800225E0D5F0FBBD
:20060500F452942274075FFD74075D4410FC74E05E4CF59F8DF005F07401800225E0D5F015
:20062500FB429422EF24E850030206A7900038E0FEFDED30E04CEE30E11574075FF5F00501
:20064500F07401800225E0D5F0FBFD42A0801474075FF5F005F07401800225E0D5F0FBF412
:20066500FD52A074075FFD74075DFC74E05E4CF5978DF005F07401800225E0D5F0FBF452DD
:20068500952274075FFD74075D4410FC74E05E4CF5978DF005F07401800225E0D5F0FB42A5
:2006A5009522EF24E14075900038E0FEFDED30E04CEE30E11574075FF5F005F0740180022A
:2006C50025E0D5F0FBFD42B0801474075FF5F005F07401800225E0D5F0FBF4FD52B07407EF
:2006E5005FFD74075DFC74E05E4CF58F8DF005F07401800225E0D5F0FBF4529622530707B6
:2007050074075F4410FD74E05E4DF58F8FF005F07401800225E0D5F0FBFF429622E5829006
:20072500003AF090003BE4F090003AE0FF24F8401974075FF5F005F07401800225E0D5F058
:20074500FBFE90003B5580F08058EF24F0401974075FF5F005F07401800225E0D5F0FBFE69
:2007650090003B5590F0803AEF24E8401974075FF5F005F07401800225E0D5F0FBFE9000C8
:200785003B55A0F0801CEF24E1401774075FF5F005F07401800225E0D5F0FBFF90003B55BE
:2007A500B0F090003BE0FF60047582012275820022E58290003CF0FF24F8401474075FF5F2
:2007C500F005F07401800225E0D5F0FBF4528022EF24F0401474075FF5F005F07401800289
:2007E50025E0D5F0FBF4529022EF24E8401474075FF5F005F07401800225E0D5F0FBF45232
:20080500A022EF24E1401474075FF5F005F07401800225E0D5F0FBF4FF52B022E58290004B
:200825003DF0FF24F8401374075FF5F005F07401800225E0D5F0FB428022EF24F0401374FA
:20084500075FF5F005F07401800225E0D5F0FB429022EF24E8401374075FF5F005F074012C
:20086500800225E0D5F0FB42A022EF24E1401374075FF5F005F07401800225E0D5F0FBFF72
:2008850042B022E58290003FF090003EE0FF600990003FE0F58202082190003FE0F582028A
:2008A50007B6AF83E582900040F0EFA3F0900040E0FEA3E0FF4E7001221EBEFF011F9000FF
:2008C50040EEF0EFA3F0900040E0FEA3E0FF7C007D00C3EC9EED9F500900000CBC00F30D50
:2008E50080F022AF83E582900042F0EFA3F0900042E0FEA3E0FF7C007D00C3EC9EED9F5030
:200905001D9003E8C007C006C005C004120924D004D005D006D0070CBC00DF0D80DC22AFAE
:2009250083E582900044F0EFA3F0900044E0FEA3E0FF7C007D00C3EC9EED9F501D9003E894
:20094500C007C006C005C0041208A7D004D005D006D0070CBC00DF0D80DC22E582900046F6
:20096500F0AFB2530703900046E054FC4FF5B222E582900048F0FF700A900047E0F5A1436E
:20098500B20122900047E0F5A243B20222E582900049F0AFAD5307F8900049E054074FF5E0
:2009A500AD22740755A3FF90004AE4F07424A3F074F4A3F0E4A3F07E00C3EE9F50299000CF
:2009C5004AE0FAA3E0FBA3E0FCA3E0C313FDEC13FCEB13FBEA13FA90004AF0EBA3F0ECA3D9
:2009E500F0EDA3F00E80D290004AE0FCA3E0FDA3E0FEA3E08C828D838EF022E582900050E3
:200A0500F0F5A590004EE0FEA3E0FF8E048CCF8F068ECE22E582900051F0F5A322AF83E500
:200A250082900052F0EFA3F0900052E0FEA3E0FF8EAF8FAF22AF82AE83ADF0FC900054EF2E
:200A4500F0EEA3F0EDA3F0ECA3F0900058E4F0E4A3F0740755ADFFBF070B758202120992FB
:200A6500E5AD30E6FB900054E0FCA3E0FDA3E0FEA3E0FFC3EC94F8ED94CFEE9407EF9400F4
:200A85005052EF5401A2E0CE13CE13CEFFEDC3134EFEED5401A2E0CC13CC13CCFD74F42C6C
:200AA500FC74013DFDE43EFEE43FFF90009074E8F07403A3F0E4A3F0E4A3F08C828D838E34
:200AC500F0EF12157BAC82AD83AEF0FF900058ECF0EDA3F0900058E0FEA3E0FF8E828F83E7
:200AE500C007C006120A22D006D0078E828F8322E58290005BF090005AE0FF30E741900042
:200B05005BE0FEBE080BADA674C75D4408F5A68020BE100BADA674C75D4410F5A68012BE51
:200B2500200BAEA674C75E4420F5A6800475820022AE885306FE530701EF4EF588801F902B
:200B4500005BE0FFBF08028008BF10028003BF2009AFA674C75FF5A68004758200227582AB
:200B65000122AF83E58290005CF0EFA3F090005CE0FEA3E0FD74035DF5D38ED274E05DF56A
:200B8500D122E58290005EF0FF90005E740F5FF0AFD35307C390005EE025E025E04FF5D3CB
:200BA50022E58290005FF0F582120B8743D3800000000022E582900060F0F582120BA67400
:200BC5004055D3FFBF400280F685D58285D48322E582900063F0FF74035FFEBE020E9000DD
:200BE50061E0FDA3E0FE8D8C8D8A800A900061E0F58AA3E0F58CAE895306F053070FEF4EFD
:200C0500F58922E582900066F0FF74305FFEBE200E900064E0FDA3E0FE8D8D8D8B800A9058
:200C25000064E0F58BA3E0F58DAE8953060F5307F0EF4EF58922E582900069F0FF30E205BA
:200C45004387808007AE87747F5EF58774C05FFEBE4002800774C05FFEBEC03274025FFE90
:200C6500BE020E900067E0F5AAA3E0F5BAD2DF801DC2DF900067E0FDA3E0900064EDF0E4FE
:200C8500A3F0758220C007120C08D007D28E74F05FF59822AF83E58290006BF0EFA3F09079
:200CA500006AE0FF60047F0280027F01EF75F002A4FFAEF0C007C0061209A7AA82AB83AC13
:200CC500F0FDD006D0078F00EEF93395E0FEFF90009FEAF0EBA3F0ECA3F0EDA3F088828941
:200CE500838EF0EF1216C4AC82AD83AEF0FF90006BE0FAA3E0FBE4C39AFA74049B5403A27E
:200D0500E0CA13CA13A2E0CA13CA13CAFB900090EAF0EBA3F0E4A3F0E4A3F08C828D838E21
:200D2500F0EF12157BAC82AD83AEF0FF0CBC00090DBD00050EBE00010FEFC313FFEE13FEF3
:200D4500ED13FDEC13F5828D838EF0EF22E58290006EF090006DE0FF60047F0280027F0164
:200D6500EF75F002A4FFAEF0C007C0061209A7AA82AB83ACF0FDD006D0078F00EEF93395AA
:200D8500E0FEFF90009FEAF0EBA3F0ECA3F0EDA3F0888289838EF0EF1216C4AC82AD83AE70
:200DA500F0FF90006EE0FB7A0090009DE4C39BF074019AA3F0900180C007C006C005C004C4
:200DC5001216A4AA82AB83D004D005D006D007900090EAF0EBA3F0EB3395E0A3F0A3F08CD5
:200DE500828D838EF0EF12157BAC82AD83AEF0FF0CBC00090DBD00050EBE00010FEFC31311
:200E0500FFEE13FEED13FDEC13F5828D838EF0EF22AF82AE83ADF0FC900070EFF0EEA3F062
:200E2500EDA3F0ECA3F090006FE0FF60047F0280027F01EF75F002A4FFAEF0C007C00612B3
:200E450009A7AA82AB83ACF0FDD006D0078F00EEF93395E0FEFF90009FEAF0EBA3F0ECA30C
:200E6500F0EDA3F0888289838EF0EF1216C4AC82AD83AEF0FF900070E0F8A3E0F9A3E0FAC2
:200E8500A3E05403A2E0CA13CA13A2E0CA13CA13CAFBE90303543F4AFAE95403A2E0C813D3
:200EA500C813A2E0C813C813C8F9900090E8F0E9A3F0EAA3F0EBA3F08C828D838EF0EF124D
:200EC500157BAC82AD83AEF0FF0CBC00090DBD00050EBE00010FEFC313FFEE13FEED13FD46
:200EE500EC13FCE4C39CFC74049DFDE49EE49F8C828D8322AF82AE83ADF0FC900075EFF07D
:200F0500EEA3F0EDA3F0ECA3F0900074E0FF60047F0280027F01EF75F002A4FFAEF0C00724
:200F2500C0061209A7AA82AB83ACF0FDD006D0078F00EEF93395E0FEFF90009FEAF0EBA3D2
:200F4500F0ECA3F0EDA3F0888289838EF0EF1216C4AC82AD83AEF0FF900075E0F8A3E0F9DA
:200F6500A3E0FAA3E0FB90009FE8F0E9A3F0EAA3F0EBA3F0900180E4F5F0C007C006C005C7
:200F8500C0041216C4A882A983AAF0FBD004D005D006D007900090E8F0E9A3F0EAA3F0EB7F
:200FA500A3F08C828D838EF0EF12157BAC82AD83AEF0FF0CBC00090DBD00050EBE00010FF5
:200FC500EFC313EE13ED13EC13FCC3E49CF58222E58290007DF0FF74C05FFEBE4002800AF1
:200FE50074C05FFEBEC00280012274025FFEBE02028003021149900079E0FBA3E0FCA3E0DE
:20100500FDA3E0FE90006FE4F08B828C838DF0EEC007C006C005C004C003120E16A982AA0F
:2010250083D003D004D005D00690006F7401F08B828C838DF0EEC006C005C004C003C00217
:20104500C001120E1685820C85830DD001D00290006AE4F089828A83C002C001120C998524
:20106500820E85830F85F010F51190006A7401F0850C82850D83120C998582128583138542
:20108500F014F515D001D002D003D004D005D006D007C3EB950EEC950FED9510EE9511501A
:2010A50017E50EC39BF516E50F9CF517E5109DF518E5119EF5198015EBC3950EF516EC9569
:2010C5000FF517ED9510F518EE9511F519C3EB9512EC9513ED9514EE95155017E512C39BDC
:2010E500F50EE5139CF50FE5149DF510E5159EF5118015EBC39512F50EEC9513F50FED9510
:2011050014F510EE9515F511C3E516950EE517950FE5189510E519951150128F065306FB81
:20112500900067E9F0EAA3F08E82020C3B8F0674FB5E4404FE900067E50CF0E50DA3F08E71
:2011450082020C3B900079E0FBA3E0FCA3E0FDA3E0FE900074E4F08B828C838DF0EEC00735
:20116500C006C005C004C003120EF9AA82D003D004D005D0069000747401F08B828C838DAF
:20118500F0EEC006C005C004C003C002120EF9A982D00290006DE4F08A82C002C001120D03
:2011A5005285821685831785F018F519D00190006D7401F08982C001120D52858212858370
:2011C5001385F014F515D001D002D003D004D005D006D007C3EB9516EC9517ED9518EE958A
:2011E500195017E516C39BF50EE5179CF50FE5189DF510E5199EF5118015EBC39516F50E40
:20120500EC9517F50FED9518F510EE9519F511C3EB9512EC9513ED9514EE95155017E51277
:20122500C39BF516E5139CF517E5149DF518E5159EF5198015EBC39512F516EC9513F517C2
:20124500ED9514F518EE9515F519C3E50E9516E50F9517E5109518E511951950128F0653AF
:2012650006FB900067EAF0E4A3F08E82020C3B74FB5F4404FF900067E9F0E4A3F08F820258
:201285000C3BE582900080F0FF74065FFEBE0602800774065FFEBE040C90007EE0FDA3E065
:2012A500FE8DB48EB5AEB35306F053070FEF4EF5B32212015E90008174FFF090000874811B
:2012C500F07400A3F0E4A3F090000B7401F0E4A3F0758204020121E582900082F090000804
:2012E5007482F07400A3F0E4A3F090000B7401F0E4A3F0758205020121E582900083F090F4
:2013050000287484F07400A3F0E4A3F090002B7401F0E4A3F07582061203D5900084E05474
:20132500D7F0900083E0FFBF010A900084E0FE4420F0800BBF0308900084E0FF4408F090CB
:2013450000087484F07400A3F0E4A3F090000B7401F0E4A3F0758206020121E58290008506
:20136500F0FFBF0108900086743FF08005900086E4F09000087486F07400A3F0E4A3F090F9
:20138500000B7401F0E4A3F0758201020121E582900087F09000287488F07400A3F0E4A3A5
:2013A500F090002B7401F0E4A3F07582001203D5900088E054F3F0900087E0FFBF010A9041
:2013C5000088E0FE4408F0800BBF0208900088E0FF440CF0900088E04402F0900008748819
:2013E500F07400A3F0E4A3F090000B7401F0E4A3F07582000201219000287489F07400A32C
:20140500F0E4A3F090002B7401F0E4A3F07582061203D5900089E054F9F09000087489F027
:201425007400A3F0E4A3F090000B7401F0E4A3F075820602012190008B74F0F090008C7492
:20144500F0F090008D74F0F090008E74F0F090008F7402F0900008748FF07400A3F0E4A326
:20146500F090000B7401F0E4A3F075820212012190008A74D2F0900008748AF07400A3F0F6
:20148500E4A3F090000B7405F0E4A3F075820A120121900008748AF07400A3F0E4A3F0908C
:2014A500000B7405F0E4A3F075821012012190008A74E1F0900008748AF07400A3F0E4A38E
:2014C500F090000B7405F0E4A3F075820B12012190008F7420F0900008748FF07400A3F031
:2014E500E4A3F090000B7401F0E4A3F0758212020121C021C0E0C0F0C082C083C007C00689
:20150500C005C004C003C002C001C000C0D075D0007582021208219001F412092475820271
:201525001207B6D0D0D000D001D002D003D004D005D006D007D083D082D0F0D0E0D0213263
:201545009000387401F075820212052775820212082190012C1209247582021207B6900199
:161565002C120924D2AF90005A7481F0758210120AF5D2A880FEA5
:20157B00AF82AE83ADF0FC900094EFF0EEA3F0EDA3F0ECA3F0900098E4F0E4A3F0E4A3F0E8
:20159B00E4A3F0900090E0FCA3E0FDA3E0FEA3E0FF751A20900094E0F8A3E0F9A3E0FAA3F3
:2015BB00E0FB339200E828F8E933F9EA33FAEB33FB900094E8F0E9A3F0EAA3F0EBA3F09020
:2015DB000098E0F8A3E0F9A3E0FAA3E0FBE828F8E933F9EA33FAEB33FB900098E8F0E9A330
:2015FB00F0EAA3F0EBA3F030001E900098E0F8A3E0F9A3E0FAA3E0FB900098740148F0E962
:20161B00A3F0EAA3F0EBA3F0900098E0F8A3E0F9A3E0FAA3E0FBC3E89CE99DEA9EEB9F408B
:20163B0031900098E8C39CF0E99DA3F0EA9EA3F0EB9FA3F0900094E0F8A3E0F9A3E0FAA316
:20165B00E0FB900094740148F0E9A3F0EAA3F0EBA3F0D51A0280030215AF900094E0FCA36F
:0E167B00E0FDA3E0FEA3E08C828D838EF022C2
:06003800E478FFF6D8FD9C
:200016007900E94400601B7A0090175078A375C900E493F2A308B8000205C9D9F4DAF27535
:02003600C9FF00
:1B16890020F71130F6138883A88220F509F6A8837583002280FEF280F5F02260
:2016A400AA83AB828BF090009DE0A4F8A9F08AF0E0A429F98BF0A3E0A429F583888222225E
:2016C400A882A983AAF0FB88F090009FE0A4FCADF089F0E0A42DFDE435F0FE88F0A3E0A48A
:2016E4002DFDE5F03EFEE433FF89F0E0A42EFEE5F03FFF88F0A3E0A42EFEE5F03FFF8AF001
:2017040090009FE0A42EFEE5F03FFF8BF0E0A42FFF8AF0A3E0A42FFF89F0A3E0A42FFF8881
:0C172400F0A3E0A42F8EF08D838C8222B5
:20003E007800E84400600A790075C900E4F309D8FC78A3E84400600C7901900000E4F0A3F5
:04005E00D8FCD9FAF7
:0D00090075812112174CE58260030200068C
:1C17300020F71430F6148883A88220F507E6A88375830022E280F7E49322E022C8
:04174C007582002280
:00000001FF
