:03000000020006F5
:03005F0002000399
:030003000215A043
:20006200AFF0AE83E582900002F0EEA3F0EFA3F0C2E8900002E0FDA3E0FEA3E0FF90000016
:20008200E0FBA3E0FC900018EDF0EEA3F0EFA3F090001BEBF0ECA3F090001D7401F075826E
:2000A20061120297AF82D2E8900004C0071208A4D0078F8222E582900006F012015B900039
:2000C20007E4F09000087407F07400A3F0E4A3F090000B7401F0E4A3F075820112011E9092
:2000E20000077408F09000087405F07400A3F0E4A3F090000B7401F0E4A3F075821112017A
:200102001E900006E0FF60069000077409F0900007E0900026F0758201020386E582900049
:200122000DF0FF741F5F4420FF900008E0FCA3E0FDA3E0FE90000BE0FAA3E0FB900018EC70
:20014200F0EDA3F0EEA3F090001BEAF0EBA3F090001DE4F08F8202029775E80275E804229A
:20016200AFF0AE83E582900011F0EEA3F0EFA3F0900011E0FDA3E0FEA3E0FF90000EE0FBB8
:20018200A3E0FC900018EDF0EEA3F0EFA3F090001BEBF0ECA3F090001DE4F07582A0120225
:2001A20097AF82900010E0FEBE0107C0071201B7D0078F8222D2E89000041208A490000AF0
:2001C2001208A4C2E822E582900014F09000287415F07400A3F0E4A3F090002B7401F0E4E5
:2001E200A3F07582001203D2900015E0FF30E0012290001574014FF09000087415F07400F7
:20020200A3F0E4A3F090000B7401F0E4A3F075820012011E900014E0FF6008D2E8900004FA
:200222000208A4C2E8229000167470F09000087416F07400A3F0E4A3F090000B7401F0E454
:20024200A3F075820712011EC2C1229000287417F07400A3F0E4A3F090002B7401F0E4A3DD
:20026200F07582001203D2900017E0FF20E00122C2E890001774FE5FF09000087417F0746C
:2002820000A3F0E4A3F090000B7401F0E4A3F075820002011EE58290001EF0FF90001FF020
:2002A200C2E99000207401F0E4A3F09000227401F090001F75F0001202F3900018E0FDA3AB
:2002C200E0FEA3E0FF90001BE0FBA3E0FC90001DE0FA900020EBF0ECA3F0900022EAF08D0D
:2002E200828E838FF01202F3D2E990001FE0F58222AFF0AE83E582900023F0EEA3F0EFA313
:20030200F0900023E0FDA3E0FEA3E0FF900022E0FC900020E0FAA3E0FB78007900C3E89A8C
:20032200E99B505FC002C003E82DF508E93EF5098F0A850882850983850AF0121B70FBF507
:2003420082C007C006C005C004C003C002C001C00012040D85820BD000D001D002D003D0B2
:2003620004D005D006D007D003D002EC600E850882850983850AF0E50B1219F908B8009DE6
:2003820009809A22E582900027F0900026E04402F09000087426F07400A3F0E4A3F090000C
:2003A2000B7401F0E4A3F075820012011E9000011208A4900026E0FF20E003C2E8229000E9
:2003C20027E0FF6008D2E89000040208A4C2E822E58290002DF0FF53071F900028E0FCA322
:2003E200E0FDA3E0FE90002BE0FAA3E0FB900018ECF0EDA3F0EEA3F090001BEAF0EBA3F002
:2004020090001D7401F08F82020297E58290002EF0F5E7E5E630E2FBC2C085E78222AFF022
:20042200AE83E582900032F0EEA3F0EFA3F0900031E0FF24FA500122740A2FFF900032E0EE
:20044200FCA3E0FDA3E0FE90002FE0FAA3E0FB900008ECF0EDA3F0EEA3F090000BEAF0EBB1
:20046200A3F08F8202011EC2E89000287435F07400A3F0E4A3F090002B7401F0E4A3F07530
:2004820082001203D2900035E0FF20E1012290003574FD5FF09000087435F07400A3F0E488
:2004A200A3F090000B7401F0E4A3F075820002011EE582900036F09000287437F07400A391
:2004C200F0E4A3F090002B7401F0E4A3F07582001203D2900037E0FF30E101229000377429
:2004E200024FF09000087437F07400A3F0E4A3F090000B7401F0E4A3F075820012011E90D9
:2005020000011208A4900037E0FF20E003C2E822900036E0FF6008D2E89000040208A4C2DA
:20052200E822E582900039F0FF24F850030205A8900038E0FEFDED30E04CEE30E1157407F7
:200542005FF5F005F07401800225E0D5F0FBFD4280801474075FF5F005F07401800225E0A1
:20056200D5F0FBF4FD528074075FFD74075DFC74E05E4CF59E8DF005F07401800225E0D577
:20058200F0FBF452932274075FFD74075D4410FC74E05E4CF59E8DF005F07401800225E075
:2005A200D5F0FB429322EF24F05003020626900038E0FEFDED30E04CEE30E11574075FF52F
:2005C200F005F07401800225E0D5F0FBFD4290801474075FF5F005F07401800225E0D5F0A0
:2005E200FBF4FD529074075FFD74075DFC74E05E4CF59F8DF005F07401800225E0D5F0FBC0
:20060200F452942274075FFD74075D4410FC74E05E4CF59F8DF005F07401800225E0D5F018
:20062200FB429422EF24E850030206A4900038E0FEFDED30E04CEE30E11574075FF5F00507
:20064200F07401800225E0D5F0FBFD42A0801474075FF5F005F07401800225E0D5F0FBF415
:20066200FD52A074075FFD74075DFC74E05E4CF5978DF005F07401800225E0D5F0FBF452E0
:20068200952274075FFD74075D4410FC74E05E4CF5978DF005F07401800225E0D5F0FB42A8
:2006A2009522EF24E14075900038E0FEFDED30E04CEE30E11574075FF5F005F0740180022D
:2006C20025E0D5F0FBFD42B0801474075FF5F005F07401800225E0D5F0FBF4FD52B07407F2
:2006E2005FFD74075DFC74E05E4CF58F8DF005F07401800225E0D5F0FBF4529622530707B9
:2007020074075F4410FD74E05E4DF58F8FF005F07401800225E0D5F0FBFF429622E5829009
:20072200003AF090003BE4F090003AE0FF24F8401974075FF5F005F07401800225E0D5F05B
:20074200FBFE90003B5580F08058EF24F0401974075FF5F005F07401800225E0D5F0FBFE6C
:2007620090003B5590F0803AEF24E8401974075FF5F005F07401800225E0D5F0FBFE9000CB
:200782003B55A0F0801CEF24E1401774075FF5F005F07401800225E0D5F0FBFF90003B55C1
:2007A200B0F090003BE0FF60047582012275820022E58290003CF0FF24F8401474075FF5F5
:2007C200F005F07401800225E0D5F0FBF4528022EF24F0401474075FF5F005F0740180028C
:2007E20025E0D5F0FBF4529022EF24E8401474075FF5F005F07401800225E0D5F0FBF45235
:20080200A022EF24E1401474075FF5F005F07401800225E0D5F0FBF4FF52B022E58290004E
:200822003DF0FF24F8401374075FF5F005F07401800225E0D5F0FB428022EF24F0401374FD
:20084200075FF5F005F07401800225E0D5F0FB429022EF24E8401374075FF5F005F074012F
:20086200800225E0D5F0FB42A022EF24E1401374075FF5F005F07401800225E0D5F0FBFF75
:2008820042B022E58290003FF090003EE0FF600990003FE0F58202081E90003FE0F5820290
:2008A20007B3AF83E582900040F0EFA3F0900040E0FEA3E0FF4E7001221EBEFF011F900005
:2008C20040EEF0EFA3F0900040E0FEA3E0FF7C007D00C3EC9EED9F500900000CBC00F30D53
:2008E20080F022AF83E582900042F0EFA3F0900042E0FEA3E0FF7C007D00C3EC9EED9F5033
:200902001D9003E8C007C006C005C004120921D004D005D006D0070CBC00DF0D80DC22AFB4
:2009220083E582900044F0EFA3F0900044E0FEA3E0FF7C007D00C3EC9EED9F501D9003E897
:20094200C007C006C005C0041208A4D004D005D006D0070CBC00DF0D80DC22E582900046FC
:20096200F0AFB2530703900046E054FC4FF5B222E582900048F0FF700A900047E0F5A14371
:20098200B20122900047E0F5A243B20222E582900049F0AFAD5307F8900049E054074FF5E3
:2009A200AD22740755A3FF90004AE4F07424A3F074F4A3F0E4A3F07E00C3EE9F50299000D2
:2009C2004AE0FAA3E0FBA3E0FCA3E0C313FDEC13FCEB13FBEA13FA90004AF0EBA3F0ECA3DC
:2009E200F0EDA3F00E80D290004AE0FCA3E0FDA3E0FEA3E08C828D838EF022AF83E5829004
:200A0200004EF0EFA3F090004EE0FEA3E0FF8EAF8FAF22AF82AE83ADF0FC900050EFF0EE91
:200A2200A3F0EDA3F0ECA3F0900054E4F0E4A3F0740755ADFFBF070B75820212098FE5AD71
:200A420030E6FB900050E0FCA3E0FDA3E0FEA3E0FFC3EC94F8ED94CFEE9407EF940050520B
:200A6200EF5401A2E0CE13CE13CEFFEDC3134EFEED5401A2E0CC13CC13CCFD74F42CFC74C1
:200A8200013DFDE43EFEE43FFF9000BE74E8F07403A3F0E4A3F0E4A3F08C828D838EF0EFBA
:200AA2001218EBAC82AD83AEF0FF900054ECF0EDA3F0900054E0FEA3E0FF8E828F83C007B7
:200AC200C0061209FDD006D0078E828F8322E582900057F0900056E0FF30E741900057E023
:200AE200FEBE080BADA674C75D4408F5A68020BE100BADA674C75D4410F5A68012BE200B85
:200B0200AEA674C75E4420F5A6800475820022AE885306FE530701EF4EF588801F90005722
:200B2200E0FFBF08028008BF10028003BF2009AFA674C75FF5A68004758200227582012206
:200B4200AF83E582900058F0EFA3F0900058E0FEA3E0FD74035DF5D38ED274E05DF5D122C5
:200B6200E58290005AF0FF90005A740F5FF0AFD35307C390005AE025E025E04FF5D322E5E6
:200B82008290005BF0F582120B6243D3800000000022E58290005CF0F582120B81744055E7
:200BA200D3FFBF400280F685D58285D48322E58290005FF0FF74035FFEBE020E90005DE05C
:200BC200FDA3E0FE8D8C8D8A800A90005DE0F58AA3E0F58CAE895306F053070FEF4EF589E7
:200BE20022E582900062F0FF74305FFEBE200E900060E0FDA3E0FE8D8D8D8B800A900060A2
:200C0200E0F58BA3E0F58DAE8953060F5307F0EF4EF58922E582900065F0FF30E20543877B
:200C2200808007AE87747F5EF58774C05FFEBE4002800774C05FFEBEC03274025FFEBE02BD
:200C42000E900063E0F5AAA3E0F5BAD2DF801DC2DF900063E0FDA3E0900060EDF0E4A3F05A
:200C6200758220C007120BE3D007D28E74F05FF59822AF83E582900067F0EFA3F0900066F3
:200C8200E0FF60047F0280027F01EF75F002A4FFAEF0C007C0061209A4AA82AB83ACF0FDB6
:200CA200D006D0078F00EEF93395E0FEFF9000CDEAF0EBA3F0ECA3F0EDA3F0888289838E12
:200CC200F0EF121A34AC82AD83AEF0FF900067E0FAA3E0FBE4C39AFA74049B5403A2E0CA98
:200CE20013CA13A2E0CA13CA13CAFB9000BEEAF0EBA3F0E4A3F0E4A3F08C828D838EF0EFE2
:200D02001218EBAC82AD83AEF0FF0CBC00090DBD00050EBE00010FEFC313FFEE13FEED1382
:200D2200FDEC13F5828D838EF0EF22E58290006AF0900069E0FF60047F0280027F01EF752B
:200D4200F002A4FFAEF0C007C0061209A4AA82AB83ACF0FDD006D0078F00EEF93395E0FE56
:200D6200FF9000CDEAF0EBA3F0ECA3F0EDA3F0888289838EF0EF121A34AC82AD83AEF0FFE0
:200D820090006AE0FB7A009000CBE4C39BF074019AA3F0900180C007C006C005C004121A80
:200DA20014AA82AB83D004D005D006D0079000BEEAF0EBA3F0EB3395E0A3F0A3F08C828D73
:200DC200838EF0EF1218EBAC82AD83AEF0FF0CBC00090DBD00050EBE00010FEFC313FFEEE3
:200DE20013FEED13FDEC13F5828D838EF0EF22AF82AE83ADF0FC90006CEFF0EEA3F0EDA3E7
:200E0200F0ECA3F090006BE0FF60047F0280027F01EF75F002A4FFAEF0C007C0061209A4BD
:200E2200AA82AB83ACF0FDD006D0078F00EEF93395E0FEFF9000CDEAF0EBA3F0ECA3F0EDD4
:200E4200A3F0888289838EF0EF121A34AC82AD83AEF0FF90006CE0F8A3E0F9A3E0FAA3E0CF
:200E62005403A2E0CA13CA13A2E0CA13CA13CAFBE90303543F4AFAE95403A2E0C813C8139E
:200E8200A2E0C813C813C8F99000BEE8F0E9A3F0EAA3F0EBA3F08C828D838EF0EF1218EB1A
:200EA200AC82AD83AEF0FF0CBC00090DBD00050EBE00010FEFC313FFEE13FEED13FDEC13FA
:200EC200FCE4C39CFC74049DFDE49EE49F8C828D8322AF82AE83ADF0FC900071EFF0EEA312
:200EE200F0EDA3F0ECA3F0900070E0FF60047F0280027F01EF75F002A4FFAEF0C007C00617
:200F02001209A4AA82AB83ACF0FDD006D0078F00EEF93395E0FEFF9000CDEAF0EBA3F0ECB4
:200F2200A3F0EDA3F0888289838EF0EF121A34AC82AD83AEF0FF900071E0F8A3E0F9A3E0E6
:200F4200FAA3E0FB9000CDE8F0E9A3F0EAA3F0EBA3F0900180E4F5F0C007C006C005C0047B
:200F6200121A34A882A983AAF0FBD004D005D006D0079000BEE8F0E9A3F0EAA3F0EBA3F031
:200F82008C828D838EF0EF1218EBAC82AD83AEF0FF0CBC00090DBD00050EBE00010FEFC386
:200FA20013EE13ED13EC13FCC3E49CF58222E582900079F0FF74C05FFEBE4002800A74C096
:200FC2005FFEBEC00280012274025FFEBE02028003021124900075E0FBA3E0FCA3E0FDA3BE
:200FE200E0FE90006BE4F08B828C838DF0EEC007C006C005C004C003120DF1A982AA83D0AA
:2010020003D004D005D00690006B7401F08B828C838DF0EEC006C005C004C003C002C001D0
:20102200120DF185820C85830DD001D002900066E4F089828A83C002C001120C7485820EC7
:2010420085830F85F010F5119000667401F0850C82850D83120C7485821285831385F0141A
:20106200F515D001D002D003D004D005D006D007C3EB950EEC950FED9510EE95115017E545
:201082000EC39BF516E50F9CF517E5109DF518E5119EF5198015EBC3950EF516EC950FF584
:2010A20017ED9510F518EE9511F519C3EB9512EC9513ED9514EE95155017E512C39BF50E00
:2010C200E5139CF50FE5149DF510E5159EF5118015EBC39512F50EEC9513F50FED9514F52D
:2010E20010EE9515F511C3E516950EE517950FE5189510E519951150128F065306FB90001E
:2011020063E9F0EAA3F08E82020C168F0674FB5E4404FE900063E50CF0E50DA3F08E8202CD
:201122000C16900075E0FBA3E0FCA3E0FDA3E0FE900070E4F08B828C838DF0EEC007C00643
:20114200C005C004C003120ED4AA82D003D004D005D0069000707401F08B828C838DF0EEE3
:20116200C006C005C004C003C002120ED4A982D002900069E4F08A82C002C001120D2D857B
:20118200821685831785F018F519D0019000697401F08982C001120D2D85821285831385FB
:2011A200F014F515D001D002D003D004D005D006D007C3EB9516EC9517ED9518EE951950DC
:2011C20017E516C39BF50EE5179CF50FE5189DF510E5199EF5118015EBC39516F50EEC954B
:2011E20017F50FED9518F510EE9519F511C3EB9512EC9513ED9514EE95155017E512C39BBE
:20120200F516E5139CF517E5149DF518E5159EF5198015EBC39512F516EC9513F517ED95C1
:2012220014F518EE9515F519C3E50E9516E50F9517E5109518E511951950128F065306FB53
:20124200900063EAF0E4A3F08E82020C1674FB5F4404FF900063E9F0E4A3F08F82020C1687
:2012620012015B90007A74FFF0900008747AF07400A3F0E4A3F090000B7401F0E4A3F075B1
:20128200820412011E90007A7403F0900008747AF07400A3F0E4A3F090000B7401F0E4A3A9
:2012A200F075820212011E90007B74F0F090007C74F0F090007D74F0F090007E74F0F09000
:2012C200007A74D2F0900008747AF07400A3F0E4A3F090000B7405F0E4A3F075820A1201D9
:2012E2001E900008747AF07400A3F0E4A3F090000B7405F0E4A3F075821012011E90007A1D
:2013020074E1F0900008747AF07400A3F0E4A3F090000B7405F0E4A3F075820B12011E9054
:20132200007A7420F0900008747AF07400A3F0E4A3F090000B7401F0E4A3F0758212020136
:201342001EE58290007FF0900008747FF07400A3F0E4A3F090000B7401F0E4A3F07582059B
:2013620002011EE582900080F09000287481F07400A3F0E4A3F090002B7401F0E4A3F075BC
:2013820082061203D2900081E054D7F0900080E0FFBF010A900081E0FE4420F0800BBF0387
:2013A20008900081E0FF4408F09000087481F07400A3F0E4A3F090000B7401F0E4A3F07510
:2013C200820602011EE582900082F0FFBF0108900083743FF08005900083E4F09000087404
:2013E20083F07400A3F0E4A3F090000B7401F0E4A3F075820102011EE582900084F090006F
:20140200287485F07400A3F0E4A3F090002B7401F0E4A3F07582001203D2900085E054F38A
:20142200F0900084E0FFBF010A900085E0FE4408F0800BBF0208900085E0FF440CF09000B6
:2014420085E04402F09000087485F07400A3F0E4A3F090000B7401F0E4A3F075820002017F
:201462001E9000287486F07400A3F0E4A3F090002B7401F0E4A3F07582061203D29000869B
:20148200E054F9F09000087486F07400A3F0E4A3F090000B7401F0E4A3F075820602011E98
:2014A20090009DE4F090009CF090009BF090009AF0900099E4F09000387401F075820C1299
:2014C200052490001212092175820C12081E900038E4F075820C1205249000331208A475F8
:2014E200820C12071FE5826004758200229000511208A475820C12071FE5827003F58222F3
:2015020075820C12071FE58270F6FFEF2499F582E43400F583E4F08F067D0075820CC0075F
:20152200C006C00512071FE582D005D006D00760EA90001EC007C006C0051208A475820CF2
:2015420012071FE582D005D006D0076028EE2499FBE43400FC8B828C83E0FA7407C39DF560
:20156200F005F07401800225E0D5F0FBF942028B828C83EAF075820CC007C006C005120727
:201582001FE582D005D006D00770EA0DBD0800408A0FBF0500500302150D75820122900057
:2015A200387401F07582001205249000387401F075820112052490A100120B427582011260
:2015C200095DD2809001F4120921C2809001F4120921121262758264121343758202121326
:2015E200657582001213C77582021213FA7582031214639000877401F09000887482F0E4A8
:20160200A3F01214A2900099E0FFFD7E0090009AE0FC7B002DFDEB3EFE90009BE0FB7A0098
:201622002DFDEA3EFE90009CE0FAF879002DFDE93EFEEF700CEC7009EB7006EA70030217EB
:201642007190009DE0FF7C00EDB50706EEB50402800302177190009AE0704590009CE070EF
:201662003F90009BE0F582121B8CAC82AD83AEF0FF900091ECF0EDA3F0EEA3F0EFA3F090E3
:201682000099E0F582121B8CAC82AD83AEF0FF900095ECF0EDA3F0EEA3F0EFA3F002177196
:2016A200900099E0FE7F0090009AE07C002FFFEC3EFE8F828E83121AA0AC82AD83AEF0FFDD
:2016C200E4C0E0C0E07420C0E07441C0E08C828D838EF0EF121AADAC82AD83AEF0FFE58196
:2016E20024FCF581900095ECF0EDA3F0EEA3F0EFA3F090009BE0FF53077F8F067F00900047
:201702009CE07C002FFFEC3EFE8F828E83121AA0AC82AD83AEF0FFE4C0E0C0E07420C0E038
:201722007441C0E08C828D838EF0EF121AADAC82AD83AEF0FFE58124FCF581900091ECF0FA
:20174200EDA3F0EEA3F0EFA3F090009BE0FF30E71E900091E0FCA3E0FDA3E0FEA3E0B2E7AB
:20176200FF900091ECF0EDA3F0EEA3F0EFA3F043D380758204120B94AE82AF83900088EE3E
:20178200F0EFA3F07E877F007D0090000E7420F0E4A3F09000107401F08E828F838DF01285
:2017A200016230C1FD900018E4F0E4A3F0E4A3F090001BE4F0E4A3F090001D7401F075826D
:2017C200FF120297E58230E5D91202287582011201C87E007F0020C10302186C900018E406
:2017E200F0E4A3F0E4A3F090001BE4F0E4A3F090001D7401F07582FFC007C006120297E5EE
:2018020082D006D00730E66290008DE0FAA3E0FBA3E0FCA3E0FDC374FE9A74FF9B74FF9CBF
:2018220074FF8DF063F08095F0401D0ABA00090BBB00050CBC00010D90008DEAF0EBA3F01E
:20184200ECA3F0EDA3F0800E90008DE4F0E4A3F0E4A3F0E4A3F09000007420F0E4A3F09088
:20186200009E75F000120062807090009EE0FDBD013C90009FE0FDBD0A169000A1E0900070
:201882003EF0758200C007C006120885D006D00790009FE0FDBD0B169000A1E0900047F086
:2018A200758200C007C006120972D006D007BEA718BF611590008BE0FCA3E0FD0CBC000176
:2018C2000D90008BECF0EDA3F00EBE00010FC3EE94A8EF946150030217D812022812024DF4
:0918E20090012C120921021604E8
:2018EB00AF82AE83ADF0FC9000C2EFF0EEA3F0EDA3F0ECA3F09000C6E4F0E4A3F0E4A3F019
:20190B00E4A3F09000BEE0FCA3E0FDA3E0FEA3E0FF751A209000C2E0F8A3E0F9A3E0FAA323
:20192B00E0FB339200E828F8E933F9EA33FAEB33FB9000C2E8F0E9A3F0EAA3F0EBA3F0907E
:20194B0000C6E0F8A3E0F9A3E0FAA3E0FBE828F8E933F9EA33FAEB33FB9000C6E8F0E9A360
:20196B00F0EAA3F0EBA3F030001E9000C6E0F8A3E0F9A3E0FAA3E0FB9000C6740148F0E992
:20198B00A3F0EAA3F0EBA3F09000C6E0F8A3E0F9A3E0FAA3E0FBC3E89CE99DEA9EEB9F40EA
:2019AB00319000C6E8C39CF0E99DA3F0EA9EA3F0EB9FA3F09000C2E0F8A3E0F9A3E0FAA347
:2019CB00E0FB9000C2740148F0E9A3F0EAA3F0EBA3F0D51A02800302191F9000C2E0FCA32C
:0E19EB00E0FDA3E0FEA3E08C828D838EF0224F
:06003500E478FFF6D8FD9F
:200013007900E94400601B7A00901C8B78D175C900E493F2A308B8000205C9D9F4DAF275CA
:02003300C9FF03
:1B19F90020F71130F6138883A88220F509F6A8837583002280FEF280F5F022ED
:201A1400AA83AB828BF09000CBE0A4F8A9F08AF0E0A429F98BF0A3E0A429F58388822222BC
:201A3400A882A983AAF0FB88F09000CDE0A4FCADF089F0E0A42DFDE435F0FE88F0A3E0A4E8
:201A54002DFDE5F03EFEE433FF89F0E0A42EFEE5F03FFF88F0A3E0A42EFEE5F03FFF8AF08D
:201A74009000CDE0A42EFEE5F03FFF8BF0E0A42FFF8AF0A3E0A42FFF89F0A3E0A42FFF88E0
:0C1A9400F0A3E0A42F8EF08D838C822242
:20003B007800E84400600A790075C900E4F309D8FC78D1E84400600C7901900000E4F0A3CA
:04005B00D8FCD9FAFA
:0D1AA000AC83AB827A007900748E021BA02B
:201AAD00121BD730D502B2D1BF0009BC0003021C80021C73BC0003021C5DE583B4FF0BE590
:201ACD0082B4FF03021C80021C5DE582B4FF03021C73C395835007247F400B021C5D2480BB
:201AED00145003021C73F582C3ED9AEE9BEF9C40111582C3EA33F9EB33FAEC33FBE433FC06
:201B0D008005E4CCCBCAF9C08275F019C3E99DEA9EEB9FEC9400D5F002802D400EE99DF919
:201B2D00EA9EFAEB9FFBEC9400FCC3B3E833F8E58233F582E58333F583C3E933F9EA33FA79
:201B4D00EB33FBEC33FC80C4B3E4F938FAE43582FBE43583FCD082500405827C80121C05B4
:031B6D00021C5403
:0D000600758120121C38E5826003020003A2
:1C1B700020F71430F6148883A88220F507E6A88375830022E280F7E49322E02284
:0B1B8C00E4AC82FBFAF97486021BCD6A
:201B9700FCABF0AA83A982749EF582C2D1EC30E716D2D1E9F42401F9EAF43400FAEBF4344D
:0D1BB70000FBECF43400FC121C05021C3C89
:131BC400FCABF0AA83A982749EC2D1F582121C05021C3C76
:201BD700AA82AB83A2F73392D1F5826002D2F7ACF0E58124F9F8E6FD08E6FE0886F008E671
:0E1BF700A2F73392D5F5836002D2F7AFF02249
:201C05007804EC7011E58224F8500AF582E4C9CACBFCD8EF22EC7820058220E713D58201DE
:131C250022C3E933F9EA33FAEB33FBEC33FCD8EA158222EC
:041C3800758200228F
:201C3C00B98003EA13B34010EA2401FAE43BFBE43CFC50047C800582BC000EBB000BBA00EC
:201C5C0008E4F5F0F583F58222A2D1E582138CF092F78B838A8222E4F583F58275F080F4AC
:0F1C7C00A2D11322E4F583F58275F0C0747F22A4
:00000001FF
